:200000000C94BB010C94CD010C94CD010C94F9010C94841D0C94CD010C94CD010C94CD0183
:200020000C94CD010C94CD010C94CD010C94C6160C94CD010C94CD010C94CD010C94CD0142
:200040000C947A160C94CD010C94C01A0C94421B0C94CD010C94CD010C94CD010C94CD01D3
:200060000C94CD010C94CD01E52FEB2FEE2FF12FF62FFE2F0630A130A130A13013301630B5
:200080001F302830A130A130A130A130A130A13034303E304A30523055305E3067306D30BE
:2000A000A130A13076307F308A30C8045B105B10D204DD04E804F3045B10F7045B10050578
:2000C0005B100F05190523055B105B105B10330540054D05F61AF81A311B311B311B311BF9
:2000E000311B311B311B311B311B311BFE1A001B021B041B061B081B0A1B0C1B311B101BC2
:20010000121B141B161B181B1A1B311B1C1B084AD73B3BCE016E84BCBFFDC12F3D6C743151
:200120009ABD56833DDA3D00C77F11BED9E4BB4C3E916BAAAABE000000803F05A84CCDB2DF
:20014000D44EB93836A9020C50B9918688083CA6AAAA2ABE000000803F000D0A4772626C74
:2001600020312E3168205B27242720666F722068656C705D0D0A00244E005B4F50543A00DC
:200180005B5645523A312E31682E32303139303833303A005B544C4F3A005B4739323A001B
:2001A0003330003238005B4700204700204D0020530020460020540033382E005B47433AF7
:2001C00047005B484C503A242420242320244720244920244E2024783D76616C20244E78C0
:2001E0003D6C696E6520244A3D6C696E652024534C50202443202458202448207E202120C6
:200200003F206374726C2D785D0D0A00536C656570696E6700526573746F72696E6720732A
:2002200070696E646C6500526573746F72696E672064656661756C74730050676D20456E16
:200240006400436865636B204C696D69747300436865636B20446F6F720044697361626CE9
:20026000656400456E61626C65640043617574696F6E3A20556E6C6F636B65640027244815
:20028000277C2724582720746F20756E6C6F636B00526573657420746F20636F6E74696E91
:2002A0007565005B4D53473A00414C41524D3A007C413A007C4F763A007C57434F3A007CB4
:2002C000506E3A007C46533A007C42663A007C57506F733A007C4D506F733A00536C65657C
:2002E0007000446F6F723A00436865636B00416C61726D00486F6D65004A6F6700486F6C29
:20030000643A0052756E0049646C65000D0A005B5052423A006572726F723A0000007A43DB
:2003200000007A4300007A430000FA430000FA430000FA4300A00C4700A00C4700A00C47B3
:20034000000048C3000048C3000048C30A000019010AD7233C6F12033B00007A440000009B
:200360000000000000C8410000FA43FA000000803F6F6B0D0A0011241FBECFEFD8E0DEBF68
:20038000CDBF27E0A0E0B1E001C01D92A136B207E1F70E94812B0C94493A0C940000EBE6FF
:2003A000F0E08081897E8083E8E6F0E080818E7F8083089584B1897E84B985B1866185B942
:2003C0008091700183FF0BC080916B00866180936B008091680081608093680008950C945B
:2003E000CF01F999FECF92BD81BD81E08FBB80B508951F920F920FB60F9211242F933F9343
:200400004F935F936F937F938F939F93AF93BF93EF93FF9380911A01813049F080910807C2
:20042000811105C00E94EB2881E00E941D1DFF91EF91BF91AF919F918F917F916F915F9183
:200440004F913F912F910F900FBE0F901F90189593B196718091700186FD02C086E198278D
:20046000992349F091FB882780F992FD8260907119F08460089580E0089561E071E088E9D7
:2004800091E00C94361D9F92AF92BF92CF92DF92EF92FF920F931F93CF93DF935B018A0142
:2004A0007C01E40EF51EEC01912C6B01C81AD90AC6018C0F9D1FCE15DF0589F00E94F101ED
:2004C000911008C0292D990C330B232F221F2227221F01C021E0982E920E8993E9CFC5019B
:2004E000800F911F0E94F10121E030E0981611F020E030E0C901DF91CF911F910F91FF90E0
:20050000EF90DF90CF90BF90AF909F900895F894F999FECF92BD81BD81E08FBB80B586272F
:20052000482F082E000C550B262F30E024233523232B39F06F3F19F060BD84E006C084E1C4
:2005400004C0882321F060BD84E28FBBF99A789408959F92AF92BF92CF92DF92EF92FF926B
:200560000F931F93CF93DF935C018A017B01E40EF51EEB01912C6C01C61AD70ACE018C0DAB
:200580009D1DCE15DF0589F0911008C0292D990C330B232F221F2227221F01C021E06991E6
:2005A000922E960E0E948702E9CF692DC501800F911FDF91CF911F910F91FF90EF90DF90BC
:2005C000CF90BF90AF909F900C94870290911B01911107C086FF02C0439A01C043981092CE
:2005E000250108952F923F924F925F926F927F928F929F92AF92BF92CF92DF92EF92FF92FA
:200600000F931F93CF93DF93CDB7DEB7CA54D1090FB6F894DEBF0FBECDBF8AE3E0ECF1E050
:20062000DF011D928A95E9F78BE0E0E8F1E0A1ECB1E001900D928A95E1F780911107843204
:2006400011F00C947C1081E08093C1011092C20183E08A8FB1E0BBA3212C312C1CA61BA63A
:2006600010E01B8E1F8EEE24E394F12CEAE0AE2EB12CF1E68F2EF3E09F2E8A8DE82FF0E0D9
:20068000EF5EF84FD080DD2009F437C29FEB9D0D9A3110F00C944B108F5F8A8FBE016A5EFB
:2006A0007F4FCE014A960E940F29882311F40C944D104E885F88688C798CC301B2010E9467
:2006C000B4390E94F236062F70E080E090E00E9423379B01AC01C301B2010E94793520E002
:2006E00030E048EC52E40E94D1380E943E390E94F236CB01E7E4DE1629F0FDE4DF1609F47B
:20070000EAC035C1083209F4C6C020F5043168F4013108F08AC0043009F452C008F464C0FF
:200720000A3009F445C00C945B100C3109F440C050F4063110F00C945B1025E1201B2093BE
:20074000C30126E0ADC00E3199F1063209F44CC00C945B100D3309F498C0A8F4053381F172
:2007600040F40B3209F47AC0013309F477C00C945B100C3310F00C945B106AEC600F60935C
:20078000C70129E08DC00C3538F40A3508F053C0003581F10C945B100C3551F00F3510F00C
:2007A0000C945B102EE5201B2093C20125E078C0009731F42F8D21110C944F1031E03F8FA5
:2007C0000093C001202F2D7F2C3119F00C3509F064C0009721F00A9711F00C945B10600F42
:2007E0006093C00120E061C04F8D41110C944F10A2E0AF8F0093C101063209F050C08431EC
:20080000910559F08E31910541F08832910529F08233910511F00C945B10B5010E94E6393C
:2008200066576093C10121E040C06FEE600F6093C50122E035C0892B31F466EA600F60933E
:20084000C40123E032C06A30710511F00C945B100A3511F40C945B1024E027C0BF8DB1117A
:200860000C944F10013331F41092C60128E0E3E0EF8F1BC00A9711F00C945B10F1E0F09392
:20088000C60128E033E03F8F10C0892B11F00C945B102AE00AC027E003C020E001C021E0B8
:2008A000892B19F087E10C948310C70102C0880F991F2A95E2F72BA53CA528233923232BC9
:2008C00019F085E10C948310ABA5BCA5A82BB92BBCA7ABA7D2CE892B29F7063018F4033070
:2008E00058F016C0083010F40C945B100A30F0F00E3159F00C945B10002319F0013011F187
:2009000004C0B3E0B093C8011DC00093C8011AC0043021F0053031F080E101C080E280932F
:20092000CA0102C01092CA018CE00DC0093031F08091C90180648093C90102C01092C90160
:200940008DE001C08BE0F70102C0EE0FFF1F8A95E2F72BA53CA52E233F23232B09F0B1CF06
:200960002BA53CA52E2B3F2B3CA72BA786CE8D2DDD0C990BAA0BBB0BFC01E654F109E531F1
:20098000F10510F00C945B10EB5AFF4F0C941C3A4092CC015092CD016092CE017092CF01EB
:2009A00080E087C04092D0015092D1016092D2017092D301116081E07CC04092D401509207
:2009C000D5016092D6017092D701126082E071C04092D8015092D9016092DA017092DB0187
:2009E000146083E066C00093DC0184E062C0C301B2010E94EB366093DD017093DE01809304
:200A0000DF019093E00185E054C04092E1015092E2016092E3017092E40186E04AC0409201
:200A2000E5015092E6016092E7017092E80187E040C04092E9015092EA016092EB01709272
:200A4000EC0188E036C020E030E04FE753E4C301B2010E949138181614F40C945110009322
:200A6000ED0189E026C04092EE015092EF016092F0017092F1013B8D31603B8F8AE019C069
:200A80004092F2015092F3016092F4017092F5014B8D42604B8F8BE00CC04092F6015092A6
:200AA000F7016092F8017092F9018B8D84608B8F8CE06701082E02C0CC0CDD1C0A94E2F72D
:200AC000960122213321232B11F00C945310D40102C0B595A7958A95E2F7A0FF0BC020E017
:200AE00030E0A901C301B2010E946F3687FF02C00C9455102C283D28C0CDBB8DBB2329F0AC
:200B0000EF8DE11102C0F2E0FF8F25FE0FC08091DD019091DE01A091DF01B091E001813878
:200B20009649A849B10514F00C9457103BA1332329F020FC02C00C94611018C08091C2013E
:200B4000813071F44F8D4230E1F58091C1018035C1F18823B1F120FC02C00C94611031C0F4
:200B60008091810181112DC020FE1BC08091C301813039F523E333E34BEC51E46091CC0170
:200B80007091CD018091CE019091CF010E94D1386093CC017093CD018093CE019093CF01A4
:200BA00010C080918F0190919001A0919101B09192018093CC019093CD01A093CE01B09365
:200BC000CF0130FC10C080918B0190918C01A0918D01B0918E018093E9019093EA01A09331
:200BE000EB01B093EC018091C001843039F426FC03C08CE10C948310E89426F88091C50130
:200C0000882369F0813029F48FAF1DAE92E09BAF0BC01FAEA2E0ADAFB1E0BBAF05C0E2E045
:200C2000EFAFF1E0FDAF1BAE8091C301813021F02F8D2330C9F52FC060ECC62E61E0D62EF8
:200C4000E12CF12C3B8DA32EB12CC5010E2C02C0959587950A94E2F780FF12C023E333E308
:200C60004BEC51E4D6019E966D917D918D919C91D1970E94D138F60166A777A780AB91AB0A
:200C8000FFEFEF1AFF0A24E0C20ED11C33E0E316F104D9F6CDCF8091C601813029F44B8DA9
:200CA000443011F00C9459108CE0E4EAF1E0DE01119601900D928A95E1F78BA59CA591FDFF
:200CC00008C00091C0010A30C9F00C3509F4B3C01EC18091C701873018F08DE10C9483103E
:200CE00090918601891769F3BE016F5F7F4F0E94421A882311F40C946F10E3CF9B8D9111AC
:200D000003C08AE10C948310C10180759927892B09F46FCF6091E1017091E2018091E30160
:200D20009091E4010E94B4390E94F2366730A8F68091DC01843141F0823011F00C945B108D
:200D400027FE02C00C945B10AFEA2A22662319F0615069A703C0B091C701B9A760ED71E09F
:200D600089A50E94421A882311F40C946F100091DC014090BC015090BD016090BE01709030
:200D8000BF0140ECE42E41E0F42E50E8A52E51E0B52EC12CD12CEB8D8E2E912CC4010C2C1B
:200DA00002C0959587950A94E2F780FF35C0043151F5D501D0962D913D914D915C91D397C8
:200DC00058966D917D918D919C915B970E947935F70126A537A540A951A90E947935D701E2
:200DE00050966D937D938D939C935397B2E0CB1213C0A30192010E947935F701608B718B1C
:200E0000828B938B09C0F70186A597A5A0A9B1A9808B918BA28BB38BFFEFCF1ADF0A24E086
:200E2000E20EF11C34E0A30EB11C43E0C416D10409F0B4CF3FC18B8D882309F462CF409014
:200E4000BC015090BD016090BE017090BF0120E8822E21E0922EDE0111967D0130ECC32E3E
:200E600031E0D32EA12CB12CE82FF0E0F8A7EFA38FA198A50A2C02C0959587950A94E2F77C
:200E800080FF29C0D7012D913D914D915C91F401608D718D828D938D0E947935D6019E9651
:200EA0002D913D914D915C91D1970E947935F60166A777A780AB91ABF2E0AF1216C0A3018D
:200EC00092010E947935D6019E966D937D938D939C93D1970AC0F40180A991A9A2A9B3A994
:200EE000F60186A797A7A0ABB1ABFFEFAF1ABF0A24E0820E911C34E0E30EF11C44E0C40E20
:200F0000D11C83E0A816B10409F0B2CFD2C09F8D933069F40E3109F494C0053309F4C3C06E
:200F20000C3109F0C6C060ED71E086E08DC0AB8DAA2381F3B091C401BFA34090BC01509056
:200F4000BD016090BE017090BF0180E8A82E81E0B82E90ECE92E91E0F92EFE0131964F019E
:200F6000C12CD12C2A2F30E03AA729A789A59AA50C2C02C0959587950A94E2F780FD0BC001
:200F8000F501808D918DA28DB38DF70186A797A7A0ABB1AB44C0053309F441C0FFA1F111DB
:200FA0002BC0D501D0962D913D914D915C91D397F40160817181828193810E947A35D70141
:200FC0009E962D913D914D915C91D1970E947A35F70166A777A780AB91ABF2E0CF121FC0B1
:200FE000A30192010E947A35D7019E966D937D938D939C93D19713C0F501208D318D428D93
:20100000538DD7019E966D917D918D919C91D1970E947A35F70166A777A780AB91ABFFEF5C
:20102000CF1ADF0A24E0A20EB11C34E0E30EF11C44E0840E911C83E0C816D10409F096CF74
:2010400069CF60ED71E087E00E94421A882311F40C946F109B8D911103C019A61F8E2AC0A3
:20106000A0E8B1E0E0ECF1E080E090E04B8D242F30E0A901082E02C0559547950A94E2F7D0
:2010800040FD0AC058964D915D916D917C915B97408B518B628B738B019614963496833042
:2010A000910539F706C08091C101823010F00C945D1019A68091C1018FA3803529F49B8D54
:2010C00091110C945F107AC2AF8DA23009F076C2BFA1B11104C0EB8DE11170C22AC020E078
:2010E00030E0A9016091CC017091CD018091CE019091CF010E946F36882309F4E2C7FFA1A0
:20110000FC3809F445C240F4F230A9F0F330B1F0F13009F053C20AC02FA12E3809F438C2BE
:2011200008F433C22F3809F430C248C23B8D311145C21F8E43C24BA144604BA38B8D88235A
:2011400009F4DFCDBBADAB2FB0E0B8ABAFA7FDADEF2FF0E0FCABEBAB81E090E07C010BAC81
:2011600002C0EE0CFF1C0A94E2F70DAC02C0880F991F0A94E2F7E82AF92A2B8D822F90E0D2
:201180008E219F21892B09F49EC7FD01EE0FFF1FEE0FFF1FE054FE4FAA0FBB1FAA0FBB1FEF
:2011A000A856BE4F2D913D914D915C9166A577A580A991A90E9479352B013C01EBA9FCA951
:2011C000EE0FFF1FEE0FFF1FE054FE4FABA9BCA9AA0FBB1FAA0FBB1FA856BE4F2D913D91E2
:2011E0004D915C9166A577A580A991A90E9479354B015C01610130E8C322DD2427FEF5C067
:20120000E89427F84CE050E06EEE71E088E991E00E943C3A892B11F481E275C78091C30103
:201220008130B1F423E333E34BEC51E46091E5017091E6018091E7019091E8010E94D13863
:201240006093E5017093E6018093E7019093E8018091E5019091E601A091E701B091E80182
:201260008FAB98AFA9AFBAAFA3019201C301B2010E94D13827966CAF7DAF8EAF9FAF279786
:20128000A5019401C501B4010E94D1382B966CAF7DAF8EAF9FAF2B9720E030E040E850E42C
:2012A0006FA978AD89AD9AAD0E94D1382FA938AD49AD5AAD0E94D13827962CAD3DAD4EADE9
:2012C0005FAD27970E9479352B962CAD3DAD4EAD5FAD2B970E9479356B017C0120E030E05E
:2012E000A9010E946F3687FDF0C6C701B6010E9470396B017C012B962CAD3DAD4EAD5FAD85
:201300002B9727966CAD7DAD8EAD9FAD27970E947A350E9470399B01AC01C701B60190587A
:201320000E9479366B017C019FA1933021F4F7FAF094F7F8F09420E030E0A9016FA978AD7C
:2013400089AD9AAD0E946F3687FF11C0F7FAF094F7F8F0948FA998ADA9ADBAADB058809335
:20136000E5019093E601A093E701B093E8010FA518A9000F111F000F111F00531E4FA701DB
:201380009601C501B4010E94D1389B01AC01C301B2010E94793520E030E040E05FE30E946C
:2013A000D138D8016D937D938D939C9313970BA91CA9000F111F000F111F00531E4FA701E3
:2013C0009601C301B2010E94D138A50194010E947A3520E030E040E05FE30E94D138F801B2
:2013E0006083718382839383E9C0212F30E038AF2FABE222F322EF2809F469C631EF232270
:201400008091C301813009F47BC0EFA5F8A9EE0FFF1FEE0FFF1FE053FE4FC080D180E28030
:20142000F380A7019601C301B2010E9479352B013C01EBA9FCA9EE0FFF1FEE0FFF1FE05328
:20144000FE4F80819181A281B3818FA798ABA9ABBAAB9C01AD01C501B4010E9479354B0141
:201460005C01A3019201C301B2010E94D1382B013C01A5019401C501B4010E94D1389B0150
:20148000AC01C301B2010E947A350E9470394B015C01A7019601C701B6010E94D1386B010E
:2014A0007C012FA538A949A95AA9CA01B9010E94D1389B01AC01C701B6010E947A350E941A
:2014C00070396B017C016093E5017093E6018093E7019093E8019B01AC01C501B4010E944A
:2014E00079354B015C01E894B7F82AE037ED43EA5BE3C501B4010E94913818164CF15EC062
:2015000000EC11E08FA998AD0C2C02C0959587950A94E2F780FF12C023E333E34BEC51E4E1
:20152000D80150966D917D918D919C9153970E94D138F801608B718B828B938BFFEFCF1A1E
:20154000DF0A0C5F1F4F23E0C216D104D9F65DCF20E030E040E05FE3C501B4010E949138C6
:2015600018160CF459CE2FE632E143E85AE3C701B6010E94D1389B01AC01C501B4010E94F6
:20158000913818160CF448CE19C03BA130613BA38FA18E58823018F44BA148604BA38B8DAC
:2015A000882309F4AECB4CE050E06EEE71E088E991E00E943C3A892B09F42ECE2BA12170FD
:2015C0009BA190FF03C0C1018E7D03C0C1018E7D9C7FAF8DA111937E892B09F07AC58E018B
:2015E000035F1F4F89E0F80111928A95E9F7222309F44BC08BA59CA5867B892B09F06BC57B
:201600008091C001853311F0811165C580918B0190918C01A0918D01B0918E01898B9A8B70
:20162000AB8BBC8B9091890180918801892B4091CC015091CD016091CE017091CF014D8782
:201640005E876F87788B84608D8B8091700185FF06C08EEE91E00E942D3181113EC5B801A9
:201660008EEE91E00E94163580911A01811139C50E943D27892B09F434C580E280931A0194
:201680000E94BE1D0E940E192CC580917001F090890181FF26C08FA18150833018F0FBA1C9
:2016A000F064FBA32B8D222339F03F8D323021F44BA140684BA315C080E1F81212C080912A
:2016C000800181509BA19074833030F4992349F09BA190629BA305C0911103C0ABA1A062C8
:2016E000ABA38091DD019091DE01A091DF01B091E0018093940190939501A0939601B0930C
:2017000097018091C20180938101882311F088E08D8B8091CC019091CD01A091CE01B0918E
:20172000CF0180938F0190939001A0939101B09392018D879E87AF87B88B8090E90190901B
:20174000EA01A090EB01B090EC01A501940160918B0170918C0180918D0190918E010E941E
:201760006F36BBA1B074EB2E811103C0EBA1E5FF20C0FF2071F0FBA1F7FD0BC0EE2021F08C
:2017800040E050E0BA0102C0B501A4018F2D0E94E5308091E9019091EA01A091EB01B09149
:2017A000EC0180938B0190938C01A0938D01B0938E01E1100CC080918B0190918C01A09121
:2017C0008D01B0918E01898B9A8BAB8BBC8B8091ED01809393018091CA0190918901981719
:2017E00051F049895A896B897C890E94E5308091CA01809389019D8980918901892B8D8B3D
:20180000F090C901809188018F1569F080911A01823029F00E944D278F2D0E94E602809183
:20182000C901809388019D8980918801892B8D8B8091C001843099F4C090E101D090E2012E
:20184000E090E301F090E40180911A01823039F00E944D2740E0C701B6010E94BC2880917C
:20186000C501809384018091C301809382012F8D233071F58091C60180938501811108C05F
:201880001092F6011092F7011092F8011092F901C090F601D090F701E090F801F090F9015C
:2018A000A70196016091BC017091BD018091BE019091BF010E946F36882351F0C092BC0189
:2018C000D092BD01E092BE01F092BF010E9494318091C70190918601981769F080938601EB
:2018E0008CE0FE013196A4EAB1E001900D928A95E1F70E9494318091C4018093830180918B
:20190000C0018632F1F138F48C3109F18E31F9F08A3069F04FC08C35D1F1863609F441C082
:20192000883209F047C068E971E087E02DC060ED71E089A50E942E1A8091860139A5381380
:2019400039C08CE0E0EDF1E0A4EAB1E025C08D8981608D8B4F8D442329F0B8018EEE91E06F
:201960000E941635B80180ED91E00E9416358CE0E0EDF1E0A8E9B1E001900D928A95E1F7A3
:2019800019C068E971E086E00E942E1A13C08CE0EEEEF1E0A0EBB1E001900D928A95E1F74D
:2019A00007C08CE0E0EBF1E0DF011D928A95E9F70E9494318091C10180938001803509F44A
:2019C0001CC3BF8DB23009F018C3813021F4BE01635F7F4F06C0811109C08D8981608D8BE1
:2019E000B8018EEE91E00E941635FEC28250823008F093C28091E5019091E601A091E701AB
:201A0000B091E8018F8F98A3A9A3BAA3ABAD94E0A99F70011124F701E856FE4FF8A7EFA32C
:201A2000970120533E4F3AA729A7D9014D905D906D907C902081318142815381C301B2014F
:201A40000E947A356BA77CA78DA79EA7EDADB4E0EB9F80011124980128563E4F3CAF2BAFB0
:201A6000C80180539E4F9EAF8DAFDC018D909D90AD90BC90F9012081318142815381C501FA
:201A8000B4010E947A356FA778AB89AB9AAB77FA709477F87094D501C401B0588B8F9C8FBE
:201AA000AD8FBE8FF701E251FE4F2BA53CA54DA55EA560817181828193810E9479356B01D9
:201AC0007C01F801E251FE4F2FA538A949A95AA960817181828193810E9479354B015C0183
:201AE000A7019601C301B2010E94D1386BAB7CAB8DAB9EABA50194016B8D7C8D8D8D9E8D46
:201B00000E94D1389B01AC016BA97CA98DA99EA90E947A356BAB7CAB8DAB9EABA5019401D1
:201B2000C301B2010E94D1384B015C01A70196016B8D7C8D8D8D9E8D0E94D1389B01AC0161
:201B4000C501B4010E9479352BA93CA94DA95EA90E94F9356B017C019BA192FF13C02DEB93
:201B600037E346E055EBC701B6010E94913887FD1DC02BED3FE049EC50E4C701B6010E94D9
:201B8000793512C02DEB37E346E055E3C701B6010E946F36181654F02BED3FE049EC50E45D
:201BA000C701B6010E947A356B017C018090640190906501A0906601B09067012F8D38A19D
:201BC00049A15AA1CA01B9010E947A35A50194010E947935A50194010E94D1380E9470398E
:201BE0004B015C0120E030E040E05FE3C701B6010E94D1382F8D38A149A15AA10E94D1387B
:201C00009F77A50194010E9479360E945E370E94F2367CAB6BABDB01AB2B09F4D8CE1D89E9
:201C20004B01A12CB12C13FF12C0C501B4010E9421379B01AC016D857E858F8598890E9440
:201C4000D1386D877E878F87988B177F1D8BC501B4010E9421374B015C019B01AC01C701DC
:201C6000B6010E9479366BA37CA38DA39EA3EFADB4E0EB9FC00111248C0108561E4FFC01B9
:201C8000E251FE4FD8012D913D914D915C9160817181828193810E947935A50194010E947D
:201CA000793627966CAF7DAF8EAF9FAF27972BA13CA14DA15EA1CA01B9010E94D1389B01C6
:201CC000AC0160E070E080E090E40E9479356B017C012BEA3AEA4AE25EE36BA17CA18DA1BD
:201CE0009EA10E94D1384B015C0120E030E040E850E4C701B6010E947A359B01AC01C50106
:201D0000B4010E94D1386FAB78AF89AF9AAF20E030E040E05FE3C701B6010E94D13823964C
:201D20006CAF7DAF8EAF9FAF23971F8E22242394312CEBA9FCA9E215F30509F448CEBF8D89
:201D4000BC3008F044C02B8D3C8D4D8D5E8D23966CAD7DAD8EAD9FAD23970E94D1386B0101
:201D60007C01A30192016FA978AD89AD9AAD0E94D138A70196010E947A357B016C01A3012D
:201D8000920123966CAD7DAD8EAD9FAD23970E94D1384B015C012B8D3C8D4D8D5E8D6FA9C1
:201DA00078AD89AD9AAD0E94D1389B01AC01C501B4010E9479352B013C01EF8DEF5FEF8F11
:201DC000470156018B8E9C8EAD8EBE8E65C0B10180E090E00E9421372BA13CA14DA15EA163
:201DE0000E94D1386B017C010E9474366B8F7C8F8D8F9E8FC701B6010E9462394B015C0150
:201E0000A9A5BAA5CD90DD90ED90FC90F7FAF094F7F8F094ADADBEAD8D919D910D90BC915F
:201E2000A02D8F8F98A3A9A3BAA3A70196016B8D7C8D8D8D9E8D0E94D1382B013C012F8D7E
:201E400038A149A15AA1C501B4010E94D1389B01AC01C301B2010E947A352B013C01A7017C
:201E60009601C501B4010E94D1386B017C012F8D38A149A15AA16B8D7C8D8D8D9E8D0E945A
:201E8000D1389B01AC01C701B6010E9479356B8F7C8F8D8F9E8F1F8EA30192016BA57CA5BE
:201EA0008DA59EA50E947A35EFA1F8A560837183828393832B8D3C8D4D8D5E8D6FA578A9C2
:201EC00089A99AA90E947A35ABADBCAD6D937D938D939C93139727962CAD3DAD4EAD5FADEB
:201EE0002797F80160817181828193810E947A35D8016D937D938D939C931397BE01635F8D
:201F00007F4F88E991E00E94163580911B0181116BC0BFEF2B1A3B0A0CCF8D8984608D8B15
:201F200080911A01823009F45FC00E944D2780911B01811162C0FBA1F071FF2E10921F01C4
:201F40002BA123FB882780F90E94B72586B1807290910001891749F084E00E941D1D0E94EB
:201F6000351580E00E94B72548C0B8018EEE91E00E94163581E08093190182E00E942D1DC2
:201F80000E94351580911B01811137C080911A018111F6CF80911901813081F4FF2051F06B
:201FA0008CE0E1E0F1E0ADE0B1E001900D928A95E1F707C085E00E941D1D03C081E080939F
:201FC0001F011092190180E00E94B7250E9435150E9484250E945E270E94B9260E94033192
:201FE00080911F0181118CC08CE0EEEEF1E0A8E9B1E001900D928A95E1F78091C801809383
:202000008701882309F47FC00E944D278091870190911A01833041F49230D1F188E00E94F0
:202020002D1D0E94351534C081E08093800110928401109283011092810110928601109245
:2020400089011092880184E6809321018093220180932301923091F064EA71E080E00E94DB
:20206000421A8823E1F10E94943140E050E0BA0180E00E94C31980E00E94E60283EA92E06E
:202080000E94AA268AE392E00E94AA260E94EE10109287012FC081E036C082E034C088E1AE
:2020A00032C086E230C089E12EC084E02CC08BE12AC085E228C084E126C08EE124C08FE17B
:2020C00022C086E120C080E21EC082E21CC083E21AC084E218C080E116C08FE014C087E0F9
:2020E00012C08CE0EEEEF1E0A8E9B1E001900D928A95E1F780E007C01A8E1BA20C942C0351
:202100000E943D027ACFC65BDF4F0FB6F894DEBF0FBECDBFDF91CF911F910F91FF90EF90D1
:20212000DF90CF90BF90AF909F908F907F906F905F904F903F902F9008950F931F93CF9338
:202140008C01C0E0F80161917191819191918F010E947526C23019F08CE20E946C1BCF5FA4
:20216000C33081F7CF911F910F9108958CE093E00C94AA26CF92DF92EF92FF92CF93DF93A0
:20218000D82F6A017B01C22F84E20E946C1B8D2F0E9484268DE30E946C1B4C2FC701B60136
:2021A0000E94C925DF91CF91FF90EF90DF90CF900C94B610CF93DF93D82FC62F84E20E94A5
:2021C0006C1B8D2F0E9484268DE30E946C1B8C2F0E948426DF91CF910C94B6108DE50E9486
:2021E0006C1B0C94B6103F924F925F926F927F928F929F92AF92BF92CF92DF92EF92FF9275
:202200000F931F93CF93DF93CDB7DEB7A4970FB6F894DEBF0FBECDBF10910807112391F195
:2022200081E080931A0189EA92E00E94AA26812F0E9484260E94B61085EF91E0019739F0AE
:20224000EFE9FFE03197F1F700C00000F7CF1150123030F08FB7F894109208078FBF12C02B
:2022600083EA92E00E94AA2681E992E00E94AA260E94EE1080E10E94231D8091070784FF3A
:20228000FCCFE8CF10910707112309F4BBC214FF04C081E080931B01D0C310FFBFC18CE06A
:2022A000E1E0F1E0DE01599601900D928A95E1F7BE01675E7F4FCE010D960E94361D8CE36F
:2022C0000E946C1B80911A018830E1F058F4813099F1A8F0823099F1843009F043C084EFA2
:2022E00092E03EC0803229F118F4803171F03AC0803441F18038B1F58CED92E031C087E003
:2023000093E02EC083E093E02BC080911C0187FD10C08DEF92E00E94AA2680911C0180FF0C
:2023200006C080E31AC082FF17C085FFFACF81E314C089EF92E014C08EEE92E011C088EECA
:2023400092E00EC082EE92E00E94AA2680911C0183FFE9CF83E301C082E30E946C1B02C00A
:202360000E94AA2680915F01F82FF170BF2E80FF07C080912601882319F085ED92E053C0DC
:202380004090BC015090BD016090BE017090BF0154EA852E51E0952E9E012F5F3F4F790189
:2023A000CE010D966C0100E0F40161917191819191914F0120853185428553850E947A35A6
:2023C000F7016083718382839383023061F4A30192010E947A35F70160837183828393831A
:2023E000BB2019F0CACFB11011C0F7012081318142815381F60160817181828193810E9469
:202400007935F60160837183828393830F5FF4E0EF0EF11C24E0C20ED11C033029F6B11005
:20242000ACCF8EEC92E00E94AA26CE010D960E949D1080915F0181FF1FC089EC92E00E94A9
:20244000AA269091500680912F03981710F0815F01C08150891B0E9484268CE20E946C1B4A
:202460008091970290919802981710F0805801C08150891B0E94842684EC92E00E94AA269A
:2024800080911A018C7749F06091EE067091EF068091F0069091F10603C060E070E0CB01BB
:2024A0000E9466268CE20E946C1B60912701709128018091290190912A0140E00E94C925DD
:2024C0000E942802F82E0E94721D082F86B1982F907280910001E92EE8268F2D802B8E294D
:2024E00059F18FEB92E00E94AA26EE2019F080E50E946C1BFF2079F0F0FE03C088E50E9447
:202500006C1BF1FE03C089E50E946C1BF2FE03C08AE50E946C1B002379F000FF03C082E5EB
:202520000E946C1B01FF03C088E40E946C1B02FF03C083E50E946C1B80912601882321F0D1
:2025400081508093260118C080911A018C7711F08DE101C089E080932601809125018111CD
:2025600003C081E08093250189EB92E00E94AA26CE0101960E949D1000912501002321F006
:2025800001500093250142C080911A018C7711F083E101C089E08093250184EB92E00E94B5
:2025A000AA26809121010E9484268CE20E946C1B809122010E9484268CE20E946C1B80910D
:2025C00023010E9484268091B00087FF05C02D9B02C002E001C001E0439B03C040E4F42E8A
:2025E00003C0002399F0F12C80EB92E00E94AA26002339F0013011F483E501C083E40E944C
:202600006C1BFF2019F086E40E946C1B8EE30E946C1B0E94B61081E00E94231D812F887E7D
:2026200009F467C080911A01982F937009F050C08872A1F080911C01807C81F40E94602526
:2026400082E080931E0180911A01803239F417FDF2C180911C01806880931C0180911A01A2
:20266000811103C091E090931C0116FF07C085FD05C090911C01906490931C0113FF05C0E8
:20268000807E19F480E180931A0115FF21C083EA92E00E94AA268FE492E00E94AA260E9461
:2026A000EE1080911C0187FD0EC090911A01903439F483FFBCC1837E826080931C01B7C1E5
:2026C000903809F0B4C180911C01806280931C0117FF0CC080911A01813029F480911C017A
:2026E000856080931C0180E880931A0188EE0E94231D11FF44C0812F8876F1F580911A0103
:20270000803471F480911C0185FD0AC084FF03C010921A0105C082FF03C0886080931C0102
:2027200080911A01882381F084FF26C090911C0190FF22C0803141F480912401882321F061
:2027400088608093240118C010921E010E943D27892B71F080911C0186FD0AC010921C016B
:2027600088E080931A010E94BE1D0E940E1904C010921C0110921A0182E00E94231D12FFE8
:2027800041C080911A01807D90911C018823D9F080911D01811117C097FD15C00E94602535
:2027A00080912F0380932E030E946F2780911E0181FF05C090911C01916090931C01897F6E
:2027C00080931E011CC097FF0AC010921E010E945E270E9484250E943D020E94B9268091E5
:2027E0001C0185FF08C08F77816080931C0180E480931A0104C010921C0110921A0184E023
:202800000E94231D90910907992309F4ABC08FB7F894109209078FBF4091210190FD02C06D
:20282000842F01C084E691FD865F92FD8A5093FD8F5F94FD8150893C08F088EC8A3008F417
:202840008AE03091220195FD02C0232F01C024E696FD22E397FD29E1481303C0231709F42E
:2028600081C080932101209322011092250110912F033090500689E9D82E96E7E92E26E940
:20288000F22E0EE732E3432E131509F457C0812E912C489CC001499C900D1124FC01E05D5F
:2028A000FC4F5F01CF010E94CA26562E672E782EC92E2D2D3E2D4F2D502F0E9491381816FC
:2028C0004CF42D2D3E2D4F2D502F6D2D7E2D8F2D902F08C0252D362D472D5C2D652D762D89
:2028E000872D9C2D0E94D138F501668B778B808F918F489CC001499C900D11249C01205D22
:202900003C4F7901F90182A093A0A4A0B5A0A501940166897789808D918D0E9491381816DC
:202920002CF4F701868A978AA08EB18E1F5F103109F410E0D52C73010C2DA6CF8D2D9E2D8D
:20294000AF2DB02F8093120290931302A0931402B09315020E94602580912F0380932E030C
:202960000E946F2710910A07112309F459C08FB7F89410920A078FBF9091230110FD02C03C
:20298000892F01C084E611FD865F12FD8A5013FD8F5F14FD8150893C08F088EC8A3008F4B1
:2029A0008AE09817D1F08093230180911A0181110DC040918B0150918C0160918D01709130
:2029C0008E01809189010E94C31905C080911E01886080931E011092250180911A0115FF38
:2029E0000DC0803159F490912401911102C092E003C090FF03C0946090932401107C81F0A2
:202A0000882311F0887361F01091880116FF02C01F7B01C01064812F0E94E6021093880188
:202A200080911A018C7F49F00E94BE1D06C080E480931A0148CE80E218CEA4960FB6F89468
:202A4000DEBF0FBECDBFDF91CF911F910F91FF90EF90DF90CF90BF90AF909F908F907F9099
:202A60006F905F904F903F900895CF92DF92EF92FF921F93CF93DF930E94F31080911C01E0
:202A8000882309F4FEC00E943D27009771F4C091890180918801C82BC0908B01D0908C019D
:202AA000E0908D01F0908E010EC0FC01C189C073439B02C020E401C020E0C22BFC01C6A408
:202AC000D7A4E0A8F1A88091700181FF03C080E20E940B1DDC2FD07311E0C07C80911C01C0
:202AE000882309F4CEC090911B019111CAC080FFC5C090911A01292F207C09F474C082FD53
:202B000012C01092240140E050E0BA0180E00E94C31980E00E94E60280911C018D7F84602B
:202B200080931C01ABC09038E1F483EA92E00E94AA268CE092E00E94AA260E94EE1040E0FC
:202B400050E0BA0180E00E94C31980E00E94E6020E94901680911B01811193C00E94F310C3
:202B6000F9CF903419F48F7D80931C0180911C0183FF84C0909189019923C1F081FD16C020
:202B80008091700181FF06C080911E01886080931E010CC0B701A6018D2F0E94C31941E09D
:202BA00060E070E080E890E40E94BC2880918801882371F080911C0181FD0AC08C2F0E94AA
:202BC000E60241E060E070E080E89FE30E94BC2880911C0181FD52C0806180931C0182E0BB
:202BE0000E942D1D4BC0809124018823C9F181FF0DC0809189018823B1F040E050E0BA0104
:202C000080E00E94C3191093240138C08C70B1F18091890181110AC08091240183FF03C006
:202C200082E00E942D1D1092240128C083EA92E00E94AA2685E192E00E94AA260E94EE105C
:202C40008091700181FF06C080911E01886080931E01E2CFB701A6018D2F0E94C319DCCF6D
:202C600080911E0183FF0AC0B701A6018D2F0E94C31980911E01877F80931E010E94F31032
:202C80002DCFDF91CF911F91FF90EF90DF90CF9008950E943D27892B19F082E00C942D1D30
:202CA00008958093B300811104C08091B0008F7703C08091B00080688093B00008958091B7
:202CC0005C01682F20915D01422F982F917080FD94E0822F817020FD80E261FD986041FD12
:202CE000806462FD906142FD8068909308038093090308951F920F920FB60F9211248F9380
:202D00009F938BB1909108039C71837E892B8BB915BC9F918F910F900FBE0F901F9018958B
:202D200080916F008D7F80936F0080918100887F81608093810010920A0380915E01909137
:202D40001A018F3F39F420910807211103C0903881F402C0943069F090E0009741F0EFE97C
:202D6000FFE03197F1F700C000000197F6CF81E001C080E09091700192FF02C091E089271F
:202D8000882311F0289A0895289808951F920F920FB60F9211242F933F934F935F936F9374
:202DA0007F938F939F93AF93BF93EF93FF9380910A03811122C28BB190911A03907E8F71E9
:202DC000892B8BB98BB1837E90911903892B8BB98091180386BD82E085BD81E080930A03F5
:202DE000789480912C0390912D03892B09F0BFC08091510690917C06981709F4A4C0E0917E
:202E000051062E2F30E087E0E89FF0011124EE5AF94FF0932D03E0932C03828193819093BB
:202E2000890080938800808191819093280380932703E481809129038E1761F1E093290398
:202E400082E1E89FF0011124E358F94FF0932B03E0932A0384859585A685B785B695A7957D
:202E6000979587958093130390931403A0931503B093160380930F0390931003A09311035E
:202E8000B093120380930B0390930C03A0930D03B0930E03A0912A03B0912B0350969C9110
:202EA000509780910903892780931A0387E0829FF001839FF00D1124EE5AF94F25814D914D
:202EC0005D916D917C911397022E04C076956795579547950A94D2F740931B0350931C0332
:202EE00060931D0370931E0314964D915D916D917C911797022E04C07695679557954795A9
:202F00000A94D2F740931F0350932003609321037093220318968D919D910D90BC91A02D5F
:202F200004C0B695A795979587952A95D2F78093230390932403A0932503B0932603868125
:202F40000E94511614C00E949016E0912A03F0912B038189882339F01092B3008091B0000B
:202F60008F778093B00084E00E942D1D46C1809119018130B1F486B18072909100018917C5
:202F800081F0109219018CE0E1E0F1E0ADE0B1E001900D928A95E1F78091070780648093AB
:202FA00007071092190340910B0350910C0360910D0370910E0380911B0390911C03A091C3
:202FC0001D03B0911E03840F951FA61FB71F80930B0390930C03A0930D03B0930E03E09132
:202FE0002A03F0912B034485558566857785481759076A077B0768F524E0209319034485C0
:20300000558566857785841B950BA60BB70B80930B0390930C03A0930D03B0930E032089AA
:203020008091010190910201A0910301B091040125FF04C00197A109B10903C00196A11DE2
:20304000B11D8093010190930201A0930301B093040140910F03509110036091110370910B
:20306000120380911F0390912003A0912103B0912203840F951FA61FB71F80930F039093DF
:203080001003A0931103B09312034485558566857785481759076A077B0778F52091190308
:2030A0002860209319034485558566857785841B950BA60BB70B80930F0390931003A093EF
:2030C0001103B093120320898091050190910601A0910701B091080126FF04C00197A109EE
:2030E000B10903C00196A11DB11D8093050190930601A0930701B09308014091130350919E
:20310000140360911503709116038091230390912403A0912503B0912603840F951FA61F27
:20312000B71F8093130390931403A0931503B09316034485558566857785481759076A07F5
:203140007B0778F5209119032061209319034485558566857785841B950BA60BB70B809314
:20316000130390931403A0931503B093160320898091090190910A01A0910B01B0910C01DD
:2031800027FF04C00197A109B10903C00196A11DB11D8093090190930A01A0930B01B09396
:2031A0000C0180911A01843039F49091190380912001892380931903809127039091280324
:2031C00001979093280380932703892B69F410922D0310922C03809151068F5F8093510658
:2031E000863011F410925106909119038091080389278093190310920A03FF91EF91BF91D4
:20320000AF919F918F917F916F915F914F913F912F910F900FBE0F901F90189580917001C5
:2032200082FF02C0289A01C02898809108038093190380915B01880F8450819580931803A1
:2032400080916F00826080936F0008954F925F926F927F928F929F92AF92BF92CF92DF9253
:20326000EF92FF926B017C0180906C0190906D01A0906E01B0906F01409068015090690176
:2032800060906A0170906B01A3019201C501B4010E94913887FF19C06091230170E080E026
:2032A00090E00E9423372AE037ED43E25CE30E94D138A70196010E94D1386B017C01A301EE
:2032C00092010E94913887FD0AC040922701509228016092290170922A018FEF47C0A50129
:2032E0009401C701B6010E946F361816E4F020E030E0A901C701B6010E946F36811109C096
:2033000010922701109228011092290110922A012DC08092270190922801A0922901B0926F
:203320002A0181E023C0C0922701D0922801E0922901F0922A01A5019401C701B6010E9474
:203340007935209104033091050340910603509107030E94D1380E945E3720E030E040E85F
:203360005FE30E947A350E94F236862FFF90EF90DF90CF90BF90AF909F908F907F906F9075
:203380005F904F90089590911B01911126C081110EC010922701109228011092290110929A
:2033A0002A018091B0008F778093B00014C0803111F42D9801C02D9A9091700191FF05C09A
:2033C000803219F440E050E0BA01CB01BA010E9426190E945116109225010895CF93DF9379
:2033E000239AC0EBD0E083E0888384E08093B100259A20916C0130916D0140916E015091F2
:203400006F01609168017091690180916A0190916B010E9479359B01AC0160E070E08EE7D0
:2034200093E40E9479366093040370930503809306039093070388818F778883DF91CF918C
:2034400008956AE080E090E00E94870245E550E06BE271E081E090E00C94A9020F931F9322
:20346000CF93C82F8B010E944D272DE0C29FC00111244CE050E0B8019E5FCF911F910F912B
:203480000C94A9021F93CF93DF93182FEB018DE0189FB00111247E5F4CE050E0CE010E9474
:2034A0004302892B59F48CE0FE0111928A95E9F7BE01812F0E942E1A80E001C081E0DF916E
:2034C000CF911F910895EF92FF920F931F93CF93DF93CDB7DEB72C970FB6F894DEBF0FBE6E
:2034E000CDBF182F80FF0BC085E5ECE1F3E0ABE2B1E005900D928A95E1F70E94211A11FF6F
:2035000010C0CE0101967C018CE0F70111928A95E9F700E0B701802F0E942E1A0F5F08301B
:20352000C9F712FF14C060E080E093E00E94870260E081E093E00E94870260E081E593E050
:203540000E94870260E082E593E00E94870213FF0AC060E08EEA93E00E94870260E08FEA10
:2035600093E00E9487022C960FB6F894DEBF0FBECDBFDF91CF911F910F91FF90EF900895D9
:203580001F920F920FB60F9211242F933F934F935F936F937F938F939F93AF93BF93EF9358
:2035A000FF93E091C600E13271F028F4E83179F40E94EB2856C0EF3321F0EE3741F482E072
:2035C00003C081E001C088E00E942D1D4AC0E7FF37C08E2F90E0FC01E458F109ED31F10557
:2035E00008F03FC0E659FF4F0C941C3A80E2ECCF80911A0185FF35C080E4E6CF81E00DC048
:2036000082E00BC084E009C088E007C080E105C080E203C080E401C080E80E94141D21C095
:2036200081E00BC082E009C084E007C088E005C080E103C080E201C080E40E940B1D11C095
:20364000A091980281E08A0F813809F480E090919702891731F0B0E0AA5EBD4FEC938093DE
:203660009802FF91EF91BF91AF919F918F917F916F915F914F913F912F910F900FBE0F9045
:203680001F9018951F920F920FB60F9211248F939F93EF93FF9380910303E82FF0E0E6563F
:2036A000FD4F90819093C6008F5F893609F480E08093030390919902891305C08091C100B2
:2036C0008F7D8093C100FF91EF919F918F910F900FBE0F901F901895E091990291E09E0F19
:2036E000993631F490E004C02091070724FD0FC0209103032917C1F3F0E0E656FD4F8083ED
:20370000909399028091C10080628093C1000895CF93C82F85E193E00E94AA268C2F0E94C5
:203720008426CF910C94B610EF92FF920F931F93CF93DF9360915B0170E080E00E94DA1056
:2037400060915E0170E081E00E94DA1060915C0170E082E00E94DA1060915D0170E083E04E
:203760000E94DA106091700162FB662760F970E084E00E94DA106091700166FB662760F92F
:2037800070E085E00E94DA1080917001082E000C990B692F661F6627661F70E086E00E94F9
:2037A000DA1060915F0170E08AE00E94DA104091600150916101609162017091630123E057
:2037C0008BE00E94BA104091640150916501609166017091670123E08CE00E94BA10609108
:2037E0007001617070E08DE00E94DA106091700165FB662760F970E084E10E94DA10609164
:20380000700163FB662760F970E085E10E94DA10609170016295617070E086E10E94DA1044
:203820006091710170E087E10E94DA104091720150917301609174017091750123E088E1FF
:203840000E94BA104091760150917701609178017091790123E089E10E94BA1060917A0131
:2038600070917B018AE10E94DA1040917C0150917D0160917E0170917F0123E08BE10E9425
:20388000BA10409168015091690160916A0170916B0120E08EE10E94BA1040916C01509116
:2038A0006D0160916E0170916F0120E08FE10E94BA10609170016695617070E080E20E946B
:2038C000DA10D4E6F12C0BE211E083E0E82EED0ECD2F82E0F81691F0E3E0FE16E9F0F1E067
:2038E000FF1631F0F80140815181628173811AC0F801448555856685778514C020E030E0EE
:2039000041E655E4F801608D718D828D938D0E947936AB01BC0106C0F80144A155A166A1D9
:2039200077A1705823E08C2F0E94BA100C5F1F4FCF5FEC12CECFD65FF394DC3821F6DF9184
:20394000CF911F910F91FF90EF900895811104C081E793E00C94AA260C94881BCF93DF9354
:20396000C1E1D7E08991882319F00E946C1BFACFDF91CF910895CF93DF9321E5829FC00105
:203980001124EC01DD5F40E550E0BE0181E197E00E944302892B69F4109211070E944D2714
:2039A00040E550E061E177E0CE010E94A90280E001C081E0DF91CF910895CF93DF93C0E09A
:2039C0008C2F0E94BB1C81110EC0109211078EE30E946C1B0E94AE1C8AE30E946C1B87E096
:2039E0000E94881B12C080911107882371F00E94F202D82F8EE30E946C1B0E94AE1C8AE36B
:203A00000E946C1B8D2F0E94A61CCF5FC230C1F6DF91CF9108959FB7F89420910A07822BC8
:203A200080930A079FBF08959FB7F89420910907822B809309079FBF08959FB7F894809304
:203A400008079FBF08952FB7F8949091070780958923809307072FBF08959FB7F8942091BB
:203A60000707822B809307079FBF08958F929F92AF92BF92CF92DF92EF92FF920F931F9353
:203A8000CF93DF93EB012BE2E22E21E0F22E8C016B018CE0C80ED11C6991799189919991B8
:203AA000F70181909190A190B1907F010E942337A50194010E947936F8016193719381935D
:203AC00091938F01CC15DD0539F7DF91CF911F910F91FF90EF90DF90CF90BF90AF909F9086
:203AE0008F90089596B19095892F877059F091FF02C082E001C080E090FD816092FF03C00F
:203B00008460089580E008951F920F920FB60F9211242F933F934F935F936F937F938F939C
:203B20009F93AF93BF93CF93EF93FF930E94721DC82F882389F080FD0E94EB28C2FF05C045
:203B400080910707826080930707C1FF05C080910707886080930707FF91EF91CF91BF91D6
:203B6000AF919F918F917F916F915F914F913F912F910F900FBE0F901F9018952F923F924C
:203B80004F925F926F927F928F929F92AF92BF92CF92DF92EF92FF920F931F93CF93DF9351
:203BA000CDB7DEB7EC970FB6F894DEBF0FBECDBF80911E0180FD6BC79091510680910B07A8
:203BC000981709F464C780910E0790910F07892B09F015C310911E0112FF09C0809150062B
:203BE00022E3289FC0011124805D9C4F02C00E943D2790930F0780930E0720900E0730908D
:203C00000F072114310409F442C70091D806802F817000FF03C01092D806EAC09091D70625
:203C20009F5F953009F0892F8093D706E82EF12C32E13E9DF0013F9DF00D1124E358F94F7D
:203C4000F0930D07E0930C07D10150969C915097908BE2E18E9FC001112420E030E04D918C
:203C60005D916D917D91F901E80FF91FE358F94F689412F8440F551F661F771F1694D1F764
:203C800040835183628373832C5F3F4F2C30310531F722E12E9DF0012F9DF00D11249F0182
:203CA0002358394FF10184859585A685B78543E0880F991FAA1FBB1F4A95D1F7F9018487C4
:203CC0009587A687B787D1011C966D917D918D919C911F970E9421376093DD067093DE0615
:203CE0008093DF069093E006F101268D378D40A151A10E9479369B01AC016093E106709310
:203D0000E2068093E3069093E40660E070E080EA9FE30E9479366093E5067093E606809305
:203D2000E7069093E8061092D9061092DA061092DB061092DC0611FD02C003FF1FC06091D9
:203D4000F6067091F7068091F8069091F9066093EE067093EF068093F0069093F1069B019C
:203D6000AC010E94D138D10152966D937D938D939C935597077F0093D8060FC0F101628943
:203D80007389848995890E9470396093EE067093EF068093F0069093F106F2E1FE9DC00180
:203DA000FF9D900D11249C012358394F7901D90151961C928091700181FF1AC0F101818934
:203DC00085FF16C022A533A544A555A560E070E080E89FE30E947936609302077093030733
:203DE0008093040790930507E1E0D7015196EC931092EA061092EB061092EC061092ED0629
:203E0000D1015A962D913D914D915C915D9729833A834B835C8360E070E080E09FE30E946B
:203E200079364B015C01F101468C578C60A071A011FF4BC0F2E0F093E906D1015296CD90FC
:203E4000DD90ED90FC905597A70196010E94D1389B01AC01C301B2010E9479354B015C015D
:203E600020E030E0A9010E946F3687FF1DC029813A814B815C81CA01B9010E947A35A30156
:203E800092010E94D1389B01AC01C701B6010E9479350E9470396093F6067093F70680937F
:203EA000F8069093F906A8C18092EA069092EB06A092EC06B092ED061092F6061092F706CE
:203EC0001092F8061092F90697C11092E9064092FA065092FB066092FC067092FD0612FFF9
:203EE0000CC01092F6061092F7061092F8061092F906C12CD12C760124C0E0912F03EF5F42
:203F0000E03109F4E0E0809150068E1759F0B2E3BE9FF0011124E05DFC4FC288D388E488CD
:203F2000F58803C0C12CD12C7601C701B6010E9470396093F6067093F7068093F8069093F3
:203F4000F906C1010E94CA26698B7A8B8B8B9C8B9B01AC010E94D13869877A878B879C87BE
:203F6000D10152962D913D914D915C9155972D833E834F8358870E946F3687FF6CC029857B
:203F80003A854B855C856D817E818F8198850E947935A50194010E94D1389B01AC01C30154
:203FA000B2010E9479356093FA067093FB068093FC069093FD0620E030E0A9010E946F36CB
:203FC00018163CF1B2E0B093E90629813A814B815C81CA01B9010E947A35A30192010E9405
:203FE000D1389B01AC016D817E818F8198850E9479350E9470396093F6067093F7068093B8
:20400000F8069093F9068091D80688608093D806F3C0A701960169857A858B859C850E9406
:204020007935A50194010E94D1386093FE067093FF06809300079093010729893A894B895F
:204040005C892093F2063093F3064093F4065093F50633E0B6C0A70196016D817E818F81A4
:2040600098850E947935A50194010E94D138A30192010E947A3520E030E040E05FE30E9451
:20408000D1386D877E878F87988B20E030E0A9010E94913818160CF097C02D853E854F85F6
:2040A0005889C301B2010E94913818160CF088C0A701960169857A858B859C850E9479351E
:2040C000A50194010E94D1389B01AC016093FE067093FF0680930007909301076D857E8578
:2040E0008F8598890E9491381816CCF589899A89AB89BC898093F2069093F306A093F4062F
:20410000B093F5062D813E814F81588569857A858B859C850E946F36811104C091E09093F8
:20412000E9066AC02D813E814F81588569857A858B859C850E947935A50194010E94D138F8
:204140009B01AC01C301B2010E9479356093FA067093FB068093FC069093FD064DC02D855E
:204160003E854F8558892093FA063093FB064093FC065093FD062093FE063093FF06409343
:2041800000075093010729813A814B815C81CA01B9010E947A352D853E854F8558890E947D
:2041A000D138A70196010E947A350E9470396093F2067093F3068093F4069093F5061CC02D
:2041C00032E03093E90618C01092FA061092FB061092FC061092FD068091F6069091F7068A
:2041E000A091F806B091F9068093F2069093F306A093F406B093F506186010931E01809173
:204200007C06482F50E05A8B498B87E0849FF001859FF00D1124EE5AF94F8091D706848366
:20422000A0910E07B0910F07BCAFABAF5E96BC91BAA3EBADFCADF78DFBA3ABADBCAD909634
:20424000BC91BCA3EBADFCADF1A1FDA32091E5063091E6064091E7065091E8066AA17BA142
:204260008B2F9F2F0E9479356EA77FA788AB99AB20E030E0A9010E946F3687FF04C01EA6A5
:204280001FA618AA19AA2091F2062E8B3091F3063F8B4091F406488F5091F506598F809177
:2042A000FA068A8F9091FB069B8FA091FC06AC8FB091FD06BD8FE091E906ED8BF091FE063E
:2042C000FEA32091FF062FA33091000738A74091010749A75091EE0659838091EF068D837E
:2042E0009091F0069987A091F106AD87B091EA06BAA7E091EB06EBA7F091EC06FCA72091DE
:20430000ED062DA73091F6063BAB4091F7064CAB5091F8065DAB8091F9068EAB2EA13FA18F
:2043200048A559A56A8D7B8D8C8D9D8D0E946F36811103C092E09AAB02C0A1E0AAAB3AA08B
:204340002BA00CA11DA18EE3C82E83ECD82E8EE2E82E89E3F82E412C512C3201CE8EDF8E4D
:20436000E8A2F9A23D89313009F4EDC0ABADBCAD313008F479C0333009F019C15A962D910C
:204380003D914D915C915D97C701B6010E94D1384B015C012E893F89488D598D69817D819B
:2043A00089859D850E9479359B01AC01C501B4010E94913887FD31C02A8D3B8D4C8D5D8D97
:2043C0006AA17BA18CA19DA10E9479359B01AC010E947A356B017C0129813D8149855D8560
:2043E0006E897F89888D998D0E947A359B01AC01C701B6010E9479366B017C01BE89B983AD
:20440000EF89ED83F88DF987298D2D873A8C2B8C0C8D1D8D31E03D8B47C120E030E040E074
:204420005FE3C501B4010E94D1389B01AC0169817D8189859D850E947935A70196010E9482
:20444000D1389B01AC01632D722DC8010E947935362E272E8C01A501940169817D8189854B
:204460009D850E9479356AC05A962D913D914D915C915D97C701B6010E94D1384B015C0192
:2044800020E030E040E05FE30E94D13829813D8149855D850E947A35A70196010E94D138AC
:2044A0009B01AC01632D722DC8010E947935362E272E8C01262F372FAC016A8D7B8D8C8DA5
:2044C0009D8D0E94913818168CF52A8D3B8D4C8D5D8D6AA17BA18CA19DA10E9479359B01D8
:2044E000AC010E947A356B017C0129813D8149855D856E897F89888D998D0E947A359B0196
:20450000AC01C701B6010E9479366B017C01BE89B983EF89ED83F88DF987298D2D873AA978
:204520003D8B3A8C2B8C0C8D1D8DBEC0A501940169817D8189859D850E947A3569837D83E5
:2045400089879D87B1C02E893F89488D598DC701B6010E94D1389B01AC01632D722DC80111
:204560000E9479355B014C019B01AC016EA17FA188A599A50E94913818160CF092C02EA1A9
:204580003FA148A559A5632D722DC8010E9479352E893F89488D598D0E9479366B017C0194
:2045A0003EA02FA008A519A542E04D8B7DC05A962D913D914D915C915D97C701B6010E9450
:2045C000D1384B015C0129813D8149855D850E946F3687FF38C020E030E040E05FE3C50114
:2045E000B4010E94D1389B01AC0169817D8189859D850E947935A70196010E94D1389B0124
:20460000AC01632D722DC8010E9479356FAB78AF89AF9AAF2AA53BA54CA55DA50E949138D6
:2046200018168CF4A501940169817D8189859D850E94793569837D8389879D873FA828AC4E
:2046400009AD1AAD31C02AA53BA54CA55DA5632D722DC8010E9479359B01AC010E947A3568
:204660006B017C0129813D8149855D856BA97CA98DA99EA90E947A359B01AC01C701B6016A
:204680000E9479366B017C01BBA9B983ECA9ED83FDA9F9872EA92D873AA42BA40CA51DA56A
:2046A00003C03A2C2B2C8401A7019601C301B2010E947A352B013C012E8D3F8D48A159A11B
:2046C0000E946F3687FF07C0A30192016E8D7F8D88A199A11BC02EA53FA548A959A9632D90
:2046E000722DC8010E94913818161CF52EE333EC4EE259E36E8D7F8D88A199A10E947A3551
:204700006E8F7F8F88A399A3A30192010E9479356B017C01232D322DA8016AA57BA58CA5FF
:204720009DA50E946F3687FD1DCE3D893093E90603C04D894093E90689819D81A985BD8516
:204740008093EE069093EF06A093F006B093F106E0910C07F0910D079189911104C080912D
:204760001E0183FF3FC0ABADBCAD51968C915197807349F19E96CD90DD90ED90FC90D19750
:204780009923D1F0209102073091030740910407509105076091EE067091EF068091F0066C
:2047A0009091F1060E94D1389B01AC01C701B6010E94D1386B017C01C701B6010E9426197A
:2047C000809306070AC010922701109228011092290110922A011092060780911E01877FDC
:2047E00080931E0147E029893A89429FF001439FF00D1124EE5AF94FFA87E9878091060766
:2048000086832091E1063091E2064091E3065091E406632D722DC8010E94D13869837A833D
:204820008B839C830E9458366B017C016091DD067091DE068091DF069091E0060E9458364C
:204840004B015C01A70196010E9479350E94F2366D837E838F839887ED81FE81A985BA85DA
:20486000ED93FC93EF2B41F480911E0181FF04C0816080931E010BC12091D9063091DA0656
:204880004091DB065091DC06C301B2010E947A352B013C0129813A814B815C81C501B401E9
:2048A0000E9479359B01AC01C301B2010E9479364B015C0120EC31EE44E65EE40E94D138AC
:2048C0000E9458360E94F236603D37E073078105910560F4A7E049895A89A49FF001A59F8C
:2048E000F00D1124EE5AF94F158253C0603ABFE07B078105910560F447E029893A89429FA4
:20490000F001439FF00D1124EE5AF94F51E011C06034AFE17A078105910568F447E029890A
:204920003A89429FF001439FF00D1124EE5AF94F52E055830CC027E0A989BA892A9FF00132
:204940002B9FF00D1124EE5AF94F33E03583A7E049895A89A49FF001A59FF00D1124EE5AD2
:20496000F94F2581022E04C096958795779567950A94D2F74D815E8102C0440F551F2A95AA
:20498000E2F7518340836115710551E08507910568F427E0A989BA892A9FF0012B9FF00D0F
:2049A0001124EE5AF94F7383628304C04FEF5FEF5383428380910B0780937C068F5F863010
:2049C00019F080930B0702C010920B07E0910E07F0910F07832D922DD801868F978FA0A350
:2049E000B1A3C092DD06D092DE06E092DF06F092E00629813A814B815C81C701B6010E94FA
:204A00007935A50194010E94D1386093D9067093DA068093DB069093DC062091EA063091F2
:204A2000EB064091EC065091ED06632D722DC8010E946F368111C0C820E030E0A901632D4B
:204A4000722DC8010E94913890911E01181614F092FF04C0916090931E0119C010920F07F8
:204A600010920E0790912F0380915006891709F4A3C881E0890F803109F480E020912E03D4
:204A8000921302C080932E0380932F0395C8EC960FB6F894DEBF0FBECDBFDF91CF911F9180
:204AA0000F91FF90EF90DF90CF90BF90AF909F908F907F906F905F904F903F902F90089597
:204AC000CF93DF93C0910E07D0910F072097C9F08091D80681608093D8066091EE0670910E
:204AE000EF068091F0069091F1069B01AC010E94D1386A8B7B8B8C8B9D8B10920F0710921A
:204B00000E07DF91CF910895CF93DF930E94901680E3E7EDF6E0DF011D928A95E9F7CBE0B1
:204B2000D3E083E2FE0111928A95E9F710920F0710920E071092510610927C0681E08093BC
:204B40000B0710920A030E945F16809109038F878BB1837E90910803892B8BB98BB18F71AD
:204B600090910903892B8BB9DF91CF910895109200019091700197FD03C090E29093000181
:204B8000882331F09091000180E289278093000108958F929F92AF92BF92CF92DF92EF922D
:204BA000FF920F931F93CF93DF93CDB7DEB72D970FB6F894DEBF0FBECDBF6B017C01042FFC
:204BC00020E030E0A9010E946F3687FF07C08DE20E946C1BF7FAF094F7F8F094102F123086
:204BE00060F020E030E048EC52E4C701B6010E94D1386B017C011250F2CF00FF0AC020E0EC
:204C000030E040E251E4C701B6010E94D1386B017C0120E030E040E05FE3C701B6010E9487
:204C20007A350E94EB3610E03AE0832E912CA12CB12C611571058105910591F0EE24E394CE
:204C4000F12CEC0EFD1EE10EF11CA50194010E94FA39605DF7016083B901CA011F5FE9CFC3
:204C600080E3101748F4E1E0F0E0EC0FFD1FE10FF11D80831F5FF5CF101313C0FE01E10F9E
:204C8000F11D80E381831F5F0CC0101303C08EE20E946C1BFE01E10FF11D80810E946C1BAF
:204CA00011501111F2CF2D960FB6F894DEBF0FBECDBFDF91CF911F910F91FF90EF90DF9009
:204CC000CF90BF90AF909F908F9008952091700120FF08C02BE832E441E25DE30E94D138BC
:204CE00041E001C040E00C94C9252091700120FF08C02BE832E441E25DE30E94D13844E0C0
:204D000001C043E00C94C925CF93DF93843630F06AE00E94DA39C0E3C90F03C0C0E08A30DC
:204D200030F06AE00E94DA39D0E3D90F01C0D0E0805D0E946C1BDD2319F08D2F0E946C1B54
:204D4000CC2329F08C2FDF91CF910C946C1BDF91CF910895CF93DF93FC018491EF0121969F
:204D6000882321F00E946C1BFE01F7CFDF91CF910895E1E0F1E0AAEFB1E0419151916191BA
:204D800071914D935D936D937D9381E0ED30F807A1F70895BF92CF92DF92EF92FF920F93A8
:204DA0001F93CF93DF937C01FC0102A513A5D4A5C5A5818980FF18C06091220170E080E08C
:204DC00090E00E9423372AE037ED43E25CE30E94D1389B01AC01B8018D2F9C2F0E94D138F6
:204DE0008B01D82FC92F2DC082FD17C06091210170E080E090E00E9423372AE037ED43E263
:204E00005CE30E94D1389B01AC01B8018D2F9C2F0E94D1388B01D82FC92FF701B6A0C7A034
:204E2000D0A4F1A42B2D3C2D4D2D5F2DB8018D2F9C2F0E949138181624F40B2D1C2DDD2D26
:204E4000CF2D20E030E040E85FE3B8018D2F9C2F0E949138181624F000E010E0D0E8CFE3B5
:204E6000B8018D2F9C2FDF91CF911F910F91FF90EF90DF90CF90BF90089580912F039091A6
:204E80005006981739F022E3829FC0011124805D9C4F089580E090E008950E9449160E9453
:204EA000351580911B01811108C00E943D27892BB1F780911A01883091F308958CE1EAEF74
:204EC000F1E0DF011D928A95E9F710922F031092500681E08093100710922E0308952F92EB
:204EE0003F924F925F926F927F928F929F92AF92BF92CF92DF92EF92FF920F931F93CF937F
:204F0000DF93C0915006C11101C0C0E1C150D0912E03DC1709F41DC1EC2EF12C22E3C29F36
:204F200080011124005D1C4FF801A688B788C08CD18C628D738D848D958D9B01AC010E94D7
:204F40007A35F801268D378D40A151A10E94D1384B018C019B01AC01B501C6010E946F36CE
:204F600087FD02C05401680182E38E9DF0018F9DF00D1124E05DFC4FC501D601828B938BFE
:204F8000A48BB58BC11101C0C0E1C150DC1761F022E32E9DC0012F9D900D11249C01205DD0
:204FA0003C4F7901D2E333C080912F03D81360C00E9460255DC0AC2EB12CDA9DC001DB9D4B
:204FC000900D1124FC01E05DFC4F6F01C11101C0C0E1C15080912F038C1302C00E946025FA
:204FE000DA9D8001DB9D100D1124005D1C4FF80186889788A08CB18CA50194016289738976
:20500000848995890E946F36811106C0760180912E03C813D0CF2CC0F801628D738D848DAE
:20502000958D9B01AC010E947A35F801268D378D40A151A10E94D138F7012289338944899A
:2050400055890E947A352B013C019B01AC01C501B4010E949138F80118162CF4428A538A99
:20506000648A758AD3CF828A938AA48AB58ACECFD0912E03F2E3DF9F80011124005D1C4F0B
:20508000C1E0CD0FC03109F4C0E02090500682E3382EC21509F45BC0CC2ED12C3C9CC001B5
:2050A0003D9C900D11249C01205D3C4F7901F8014288538864887588F90182889388A48854
:2050C000B588A5019401C301B2010E946F3687FF24C0F801628D738D848D958D9B01AC01CC
:2050E0000E947A35F801268D378D40A151A10E94D138A30192010E947A352B013C019B01E4
:20510000AC01C501B4010E949138181634F4F701428A538A648A758ADC2F3C9CF0013D9C6B
:20512000F00D1124E05DFC4F26893789408D518D62897389848995890E946F36811101C0EF
:20514000DC2FCF5FC03109F4C0E08701A2CFD0932E03DF91CF911F910F91FF90EF90DF905E
:20516000CF90BF90AF909F908F907F906F905F904F903F902F9008951F93CF93DF93142F24
:2051800020E030E040EA51E40E94D1380E9458360E94F236EB012097D1F080911B018111D8
:2051A00016C0111103C00E94351506C00E94F31080911C0181FD0BC02FEF80E792E02150FE
:2051C00080409040E1F700C000002197E4CFDF91CF911F9108958091070784FD1FC080E13F
:2051E0000E942D1D8091B0008F778093B000439890911A01892F8C7221F480911E01867031
:2052000069F0943031F480910807811105C086E001C083E00E941D1D0C94901608958F926B
:205220009F92AF92BF92CF92DF92EF92FF920F931F93CF93DF937C016B01DC01CC91D0E0CC
:20524000FE01EF5EF84F80818D3229F4EF012296818101E009C08B3219F0CE5ED84F03C0AE
:20526000EF012296818100E0912CF0E010E020E030E0A9015E01E0EDE80FEA30D0F4FF5F0E
:20528000F93098F491101150A5E0B0E00E94223ADC01CB01880F991FAA1FBB1F9C01AD015E
:2052A0002E0F311D411D511D0AC0911008C01F5F06C0EE3F41F4911006C0992493942196BC
:2052C000D5018C91D7CFFF2309F44FC0CA01B9010E9421374B015C0120E030E0A9010E9483
:2052E0006F36882349F11F3F64F42AE037ED43E25CE3C501B4010E94D1384B015C011E5F90
:20530000F2CF1F3F59F42DEC3CEC4CEC5DE3C501B4010E94D1384B015C010EC0112361F046
:2053200020E030E040E251E4C501B4010E94D1384B015C011150F2CF002351F0B7FAB094BC
:20534000B7F8B094F60180829182A282B38206C0D6018D929D92AD92BC921397C151D740AA
:20536000C150F701C08381E001C080E0DF91CF911F910F91FF90EF90DF90CF90BF90AF90D5
:205380009F908F9008952F923F924F925F926F927F928F929F92AF92BF92CF92DF92EF9275
:2053A000FF920F931F93CF93DF93CDB7DEB7A1970FB6F894DEBF0FBECDBF90911B019111BD
:2053C00087C18D8F9E01235F3F4F3A8F298F89E0D9011D928A95E9F786E08D8B9BE2A92E76
:2053E00091E0B92EFE0176964F0100E010E0C12CD12C7601FD8D6F2E712C802F002321F022
:20540000013021F090E103C094E001C098E0D4019D934D01F30102C0F595E7958A95E2F762
:20542000E0FF1BC020E030E040EC5FEBD50194966D917D918D919C9197970E94D138362E98
:20544000472E582E292EA70196010E946F3687FD04C0C32CD42CE52CF22C0F5F1F4FB4E09E
:20546000AB0EB11C0330110541F62090760130907701409078015090790184E0A82EBB240B
:20548000B39461E071E0CE0101960E94361D80917101E82FF0E0FF8FEE8FFE01319621E09C
:2054A00031E03C8F2B8F39A328A3DE0156964D0180E090E000E010E0B701A601705893013B
:2054C000082E02C0359527950A94E2F720FF23C00F5FA8A1B9A11D921D921D921C9213975F
:2054E0002E8D3F8D082E02C0359527950A94E2F720FF03C0BB2019F007C0BB2029F0C0826D
:20550000D182E282F38204C04083518362837383D4012C91122B0196BFEF8B1A9B0A349601
:2055200028A139A12C5F3F4F39A328A38330910531F6602F70E080E090E00E9421370E944D
:2055400070399B01AC0110932001C201B1010E94D1386D877E878F87988BBE01635F7F4FF4
:20556000CE0101960E94563234E030931E010E94BE1D0E940E19BB20E9F00E942802FE01E0
:20558000769620E030E090E06191462F412359F0AC01022E02C0559547950A94E2F740FF50
:2055A00002C0609516232F5F3F4F2330310561F7109320010E94BE1D80910707847339F17D
:2055C0001091070714FF03C086E00E941D1D15FF03C087E00E941D1DB11007C00E94280296
:2055E0009D8D892339F088E003C012FF03C089E00E941D1D80910807882329F00E94EB28CF
:205600000E94351565C084E00E94231D04C0812F8C7109F0B0CF0E94842500917A01109152
:205620007B010115110549F0AFE9BFE01197F1F700C0000001501109F4CFB1E0BB26C9F0A9
:2056400020E030E040EA50E460917C0170917D0180917E0190917F010E94D1386B017C012A
:205660002090720130907301409074015090750110C0C0907C01D0907D01E0907E01F0904E
:205680007F0120907601309077014090780150907901AA94A110F5CEC301002E02C09595F8
:2056A00087950A94E2F780FF06C0EB8DFC8D10821182128213820F5F1F4F2B8D3C8D2C5FDB
:2056C0003F4F3C8F2B8F0330110531F710921E01A1960FB6F894DEBF0FBECDBFDF91CF9137
:2056E0001F910F91FF90EF90DF90CF90BF90AF909F908F907F906F905F904F903F902F9038
:205700000895CF93DF93CDB7DEB761970FB6F894DEBF0FBECDBF8091C00082608093C0003A
:205720001092C50080E18093C4008091C10088698093C10080E090E00E94F1018A3009F01C
:205740003BC545E550E061E070E08BE291E00E944302892B09F430C58AB18C618AB9209ACE
:205760008AB1806E8AB9809181008F7E8093810080918100886080938100809180008C7FE0
:2057800080938000809180008F708093800080916E00887F80936E0014BC15BC80916E002C
:2057A000816080936E0087B1887F87B988B1876088B980916C00876080936C00809168004B
:2057C0008260809368008CE0E1E0F1E0DF011D928A95E9F7789410921A018091700184FF12
:2057E00003C081E080931A01AAE12A2EA1E03A2E9924939480911A0191E1F10111929A9545
:20580000E9F780931A0184E68093210180932201809323018CE0ADE0B1E01D928A95E9F736
:205820001092190110920707109208071092090710920A07809198028093970280E4E0E863
:20584000F1E011928A95E9F764EA71E080E00E94421A811103C087E00E94881B0E94EE192E
:205860003B9A43980E94DA013D98459A80E00E94B7250E945E270E9484250E94B9260E94D4
:205880003D028AE591E00E94AA268091700183FF10C00E942802882361F090921A0183EA31
:2058A00092E00E94AA2682E492E00E94AA260E94EE1080911A01817899F083EA92E00E94EB
:2058C000AA268DE792E00E94AA260E94EE1090921A0110E000E0E2E0EE2EF4E08F2E29C09B
:2058E00010921A010E94DD1CF4CFE92FF0E0EA5EFD4F80819F5F913809F490E09093970220
:205900008F3FE9F08A3021F50E94351580911B01811170CFE12FF0E0EF5EF84F1082F02F01
:20592000F170FF2E00FF18C08BE00E94881B10E000E090919702809198029813D6CF0E942B
:2059400049160E94351580911B01882391F352CF8D3009F00BC4D8CF80911107882309F482
:2059600002C4843209F0F7C3998A80911207833409F134F4882361F0843209F006C11AC086
:205980008A3459F08835B1F0873409F0FEC012C082EC91E00E94AA26DCC380911A018F7D36
:2059A00009F0C7C3809113078D3309F0CAC30E94F202C2C3909113079111C3C3833409F4C1
:2059C000B2C01CF4843239F0C4C3873469F0883509F4C9C0BEC380911A018871F82E09F0C3
:2059E000A8C30E94941BB5C38CEB91E00E94AA26809180018C3838F088EB91E00E94AA2645
:205A0000809180018A580E94842689EA91E00E94AA26809186018A5C0E94842689EA91E0C2
:205A20000E94AA26809184018F5E0E94842689EA91E00E94AA268091820125E1281B822F41
:205A40000E94842689EA91E00E94AA2680918301865A0E94842689EA91E00E94AA2680917C
:205A600081019EE5981B892F0E94842680918701882399F08CEA91E00E94AA2680918701AB
:205A8000833029F08E3139F0823039F404C080E30E946C1B02C00E9484268CEA91E00E948C
:205AA000AA2680918901803131F0803231F0811107C085E303C083E301C084E30E946C1B9B
:205AC0008CEA91E00E94AA2680918801882311F088E301C089E30E946C1B85EB91E00E94E3
:205AE000AA26809193010E94842682EB91E00E94AA2660918F0170919001809191019091BE
:205B000092010E9466268FEA91E00E94AA2660918B0170918C0180918D0190918E0140E0EE
:205B20000E94C9250EC080911A01823069F40E94EB2883EA92E00E94AA268AE592E00E9443
:205B4000AA260E94EE1005C38111F3C2E0921A0183EA92E00E94AA2683E692E00E94AA269B
:205B60000E94EE103BC080911A01813009F0F1C283EA92E00E94AA268BE692E00E94AA265B
:205B80000E94EE1010921A01E4C290911A01923008F0CFC2893409F49FC034F4833271F024
:205BA000883409F45AC044C1823509F4EBC0833509F480C08E3409F03BC114C18091130702
:205BC0008111BFC210E0BE016F5F7F4F812F0E94421A811105C087E00E94881BF12CB9C21E
:205BE00086EA91E00E94AA26163029F0173041F480EA91E002C083EA91E00E94AA2604C0C6
:205C000086E3810F0E9484268AE30E946C1BCE0101960E949D100E94EE101F5F183099F6FF
:205C20008AE991E00E94AA2680EB91E00E949D100E94EE1084E991E00E94AA266091BC0145
:205C40007091BD018091BE019091BF010E9475260E94EE100E9403317CC28091700184FFDE
:205C600065C280921A018091130781116AC20E94CF0181E00E94C32982E00E94C3290E94F4
:205C8000351580911B01811106C00E943D020E94B9260E94DA0180911B0181115AC21092D9
:205CA0001A010E94901680911307811152C20E94DD1C94CF809113078C3409F042C28091B9
:205CC0001407803509F03DC280911507811139C280E80E942D1D3DC2E98A809113078111BF
:205CE00033C040E550E06EEA73E081E197E00E944302892B51F41092110740E550E061E1A7
:205D000077E08EEA93E00E94A90280E891E00E94AA260E94AE1C0E94EE108AE791E00E9419
:205D2000AA2686E50E946C1B8AE50E946C1B8CE20E946C1B8FE00E9484268CE20E946C1B7E
:205D400080E80E948426FDCEA3E0A98B8D3309F0F8C183E0282F30E0F901EF5EF84F908132
:205D6000D901A25FB84F9C938F5F90819111F2CF898B40E550E061E177E08EEA93E00E9421
:205D8000A902E7C180911307833509F0DAC180911407843509F0D5C1809115078D3309F0DF
:205DA000D0C1809117078111CCC180911607843239F08A3239F0833209F0C3C182E003C0BB
:205DC00081E001C08FEF0E94631A83EA92E00E94AA2687E292E00E94AA260E94EE100E9424
:205DE000EB28B7C1E98A8091130781111DC010E0812F0E94BB1C811104C087E00E94881BF0
:205E00000EC087E791E00E94AA26812F0E9484268DE30E946C1B0E94AE1C0E94B6101F5F7C
:205E2000123009F496C1E4CF911183C111E001C010E0BE01635F7F4FCE0141960E940F29C2
:205E4000811103C072E0F72E84C1E98981E08E0F898BF0E0EF5EF84F90819D3309F071C13D
:205E6000112371F1482F50E0282F30E0F901EF5EF84F9081241B350BD901AF5EB84F9C9343
:205E80008F5F90819111F0CF898B0E94F202811153C16D857E858F8598890E94B4390E94F7
:205EA000F236162F0E944D27B1E51B9FC001112440E550E061E177E09D5F0E94A9028ECE86
:205EC000BE016F5F7F4FCE0141960E940F29882309F4B8CFE989F0E0EF5EF84F808181114F
:205EE00030C1AD84BE84CF84D88820E030E04FE753E4C601B5010E94913818160CF421C116
:205F000049805A806B807C80C601B5010E94F236062F20E030E0A901C301B2010E946F3603
:205F200087FD0CC1043608F440C0045680E0033098F510E0000F111F000F111F823079F0D7
:205F4000F801833011F1813019F0E55DFE4F02C0E95CFE4F4082518262827382E4C00D5B7C
:205F60001E4F20E030E040E752E4C301B2010E94D13820E030E040E752E40E94D138F80114
:205F80006083718382839383CEC0E15BFE4F77FA709477F87094DECF8F5F0A3008F4D1C0AE
:205FA000843009F4CEC00A50C2CFC301B2010E94B4390E94F23610E00132110508F0C1C035
:205FC000F801EC5CFF4F0C941C3A633008F4BCC060935B01A8C060935E01A5C060935C0173
:205FE00002C060935D010E945F169DC080917001662311F0846095C08B7F93C080917001F6
:20600000662311F080648DC08F7B8BC080917001662311F0806801C08F778093700180E0D1
:206020000E94B72580C060935F017DC04092600150926101609262017092630174C04092DA
:2060400064015092650160926601709267016BC080917001662311F0816001C08E7F8093D7
:2060600070010E9494315FC080917001662321F084FF6DC0806255C08F7D53C080917001C5
:20608000662311F0886001C0877F809370010E94DA0149C080917001662311F0806141C0CF
:2060A0008F7C3FC0609371013EC04092720150927301609274017092750135C040927601BB
:2060C0005092770160927801709279012CC070E070937B0160937A0126C040927C0150923F
:2060E0007D0160927E0170927F011DC0409268015092690160926A0170926B0108C0409266
:206100006C0150926D0160926E0170926F010E94EE1909C080917001662311F0826001C0CE
:206120008D7F809370010E94211A13C055E0F52E10C048E0F42E0DC0F82E0BC034E0F32EBA
:2061400008C023E0F22E05C096E0F92E02C08AE0F82E8F2D08C080911A01817211F089E093
:20616000E4CB0E94F2020E94A61CE1CB002329F0893209F0DECB0D7FDCCB813208F4D9CBAB
:206180008F3209F4D6CB883289F08B3389F01F3488F4212F30E01F5F9FE9980FF901EF5E13
:2061A000F84F9A3108F480528083C3CB02E0C1CB04E0BFCB01E0BDCB87E00E94881B8FEFFF
:2061C0000E94631A0E94941BC7CACF92DF92EF92FF92CF9390911A01923079F06A017B012A
:2061E000C82F0E944D27B701A6018C2FCF91FF90EF90DF90CF900C94C319CF91FF90EF9052
:20620000DF90CF900895CF93DF93CDB7DEB72C970FB6F894DEBF0FBECDBF8FE093E00E9498
:20622000AA266DE071E0CE0101960E94361DCE0101960E949D108AE30E946C1B80911F0119
:206240000E9484260E94EE102C960FB6F894DEBF0FBECDBFDF91CF9108958F929F92AF9249
:20626000BF92CF92DF92EF92FF920F931F93CF93DF93C0907101D12C2BE2E22E21E0F22EC4
:206280008C01C0E0D0E0C6010C2E02C0959587950A94E2F7F80180809180A280B38020E042
:2062A00030E0A90180FF15C0C501B4010E946F3687FD2CC0F70184A195A1A6A1B7A19C010F
:2062C000AD015058C501B4010E949138181694F41DC0C501B4010E9491381816BCF0F70137
:2062E00024A135A146A157A1C501B4010E946F3687FD0CC02196F4E0EF0EF11C0C5F1F4FA4
:20630000C330D10509F0BFCF80E001C081E0DF91CF911F910F91FF90EF90DF90CF90BF9060
:20632000AF909F908F9008950E944D271092260108956F927F928F929F92AF92BF92CF9260
:20634000DF92EF92FF920F931F93CF93DF93EB018C015B018CE0A80EB11C89E9682E96E749
:20636000792E26E9822E3EE7932EC990D990E990F99020E030E0A901C701B6010E946F368D
:206380008823B9F0A7019601F80160817181828193810E9479366B017C01E894F7F893014E
:2063A000A401C701B6010E949138181614F0360147010C5F1F4FCA15DB05B9F6B301C401DD
:2063C000DF91CF911F910F91FF90EF90DF90CF90BF90AF909F908F907F906F9008954F9259
:2063E0005F926F927F92AF92BF92CF92DF92EF92FF920F931F93CF93DF93EC015C018CE046
:20640000A80EB11C8E01C12CD12C7601F80141905190619071908F0120E030E0A901C3015E
:20642000B2010E946F36882371F0A3019201C301B2010E94D1389B01AC01C701B6010E9493
:206440007A356B017C010A151B0501F7C701B6010E9470396B017C019B01AC0160E070E0E1
:2064600080E89FE30E9479362B013C01A3019201688179818A819B810E94D1386993799384
:2064800089939993AC16BD0689F7C701B601DF91CF911F910F91FF90EF90DF90CF90BF90E5
:2064A000AF907F906F905F904F9008952F923F924F925F926F927F928F929F92AF92BF92CA
:2064C000CF92DF92EF92FF920F931F93CF93DF93CDB7DEB7C454D1090FB6F894DEBF0FBEEA
:2064E000CDBF3B0130915006232E312C22E3229DA001239D500D1124BA01605D7C4F7AAFEC
:2065000069AFFB0111922A95E9F7F3012085FB01218BF3014481558166817781E9ADFAAD39
:2065200046A757A760AB71AB21FF40C02CE0E1E0F1E0DE01599601900D922A95E1F78BABC0
:206540009CAB6BE271E07EAB6DABCE010D9623969FAF8EAF2397FE0179962196FFAFEEAF95
:206560002197F2E33F9FC00111249C01205D3C4F3EAF2DAFBE016B5D7F4F7CAF6BAF78AF8B
:206580006FAB10E082E3829D9001839D300D1124C901805D9C4FFC013C962596FFAFEEAFE3
:2065A00025972C01F0E14F0E511C3CC02CE0EAEFF1E0BFCFEDADFEAD2193319341935193A2
:2065C000FEAFEDAF2596EEADFFAD2597C080D180E280F380C216D306E406F50610F469014A
:2065E0007A012596EEADFFAD2597C082D182E282F3820E942337A50194010E947936EFA9D4
:20660000F8AD6193719381939193F8AFEFAB20E030E0A9010E946F3687FD42C01F5F13301C
:2066200009F44CC0EBA9FCA96191719181919191FCABEBABEDA9FEA981909190A190B190D2
:20664000FEABEDABA50194010E94D1380E949E382396EEADFFAD23976193719381939193B1
:206660002396FFAFEEAF23972196EEADFFAD2197C190D190E190F1902196FFAFEEAF219748
:206680006C197D098E099F099B01AC0197FF92CF22273327A901261B370B480B590B8ACF90
:2066A000112321F0113021F080E803C080E201C080E4F2019081892B8083B0CFCD28CE286C
:2066C000CF2809F496C1CE0185960E94EF314B015C0182E3829D8001839D100D1124005D46
:2066E0001C4FF801868E978EA0A2B1A2BE016B5D7F4F83E491E00E949931F801628F738FE3
:20670000848F958FBE016B5D7F4F87E391E00E949931F80166A377A380A791A7F188F0FCC6
:2067200012C0F3012081318142815381F3FC06C0F80122A733A744A755A709C0C501B4012D
:206740000E94D138F80162A773A784A795A79091500680912F03981711F0F1FE0DC082E380
:20676000829DF001839DF00D1124E05DFC4F128A138A148A158A54C026E032E03CAB2BABD0
:206780008E010F5F1F4FBE016F5C7F4F7AAB69ABC12CD12C76010DAB1FABEBA9FCA98190D0
:2067A0009190A190B190FCABEBABEBADFCAD4190519061907190FCAFEBAFA3019201C501E2
:2067C000B4010E94D1389B01AC01C701B6010E9479356B017C01A5019401C301B2010E9404
:2067E0007935F80161937193819391938F0129A93AA96BAD7CAD2617370779F62FEE3FEF07
:206800004FE75FE3C701B6010E94913818166CF482E3829DF001839DF00D1124E05DFC4F39
:2068200012A213A214A215A271C02FEE3FEF4FE75FEBC701B6010E946F3687FF11C082E304
:20684000829DF001839DF00D1124E05DFC4F89E996E7A6E9BEE782A393A3A4A3B5A356C01B
:206860008DA99FA90E94EF316DA97FA983E491E00E9499314B015C01A701960160E070E0DE
:2068800080E89FE30E94793520E030E040E05FE30E94D1380E9470396B017C01209160015B
:2068A000309161014091620150916301C501B4010E94D138A70196010E94D1384B015C0183
:2068C000A701960160E070E080E89FE30E9479359B01AC01C501B4010E9479366B017C01B1
:2068E00020E030E0A9010E946F3687FF03C0C12CD12C760182E3829DF001839DF00D112426
:20690000E05DFC4FC2A2D3A2E4A2F5A282E3829D8001839D100D1124005D1C4FF8018189B7
:2069200081FD69C089AD9AAD0E94CA266B017C018090120290901302A0901402B0901502C2
